:030000000206D71E
:0C06D700787FE4F6D8FD75815202071E02
:1007CF0057656C636F6D65210050726573732053AD
:1007DF003133210050617573656420202020200083
:1007EF00506C6179696E67202020202000506C6169
:1007FF0079696E672020202000506C6179696E67DF
:10080F002020200053746F707065642E20202020EC
:02081F002000B7
:100A9600013200C100023400000136FF0133FF01BC
:050AA60037FF013800DC
:100AFB00E4FDFCC3ED9FEC9E5015E4FBFA0BBB0031
:0F0B0B00010AEB64784A70F50DBD00010C80E41F
:010B1A0022B8
:100B800053890F438910758DFC758B66C28FD2AB6C
:030B9000D28E22E0
:03001B0002076376
:10076300C0E0C0F0C083C082C0D075D000C000C05C
:1007730001C002C003C004C005C006C007758DFCDC
:10078300758B66120821120003EF640160081200E2
:1007930003EF640270130535E53570020534C39425
:1007A300E8E5349403400A8000753400753500D2BF
:1007B30000D007D006D005D004D003D002D001D09A
:0C07C30000D0D0D082D083D0F0D0E03243
:100298007510FF120B6C120B937FF47E0112098408
:1002A800120B80D2AF7BFF7A0779CF7D017F0112D5
:1002B8000A737BFF7A0779D87D017F02120A7312CD
:1002C80005A38F371205A38F36E536B53305E4F558
:1002D8003880230538C3E538940374809480401629
:1002E800E4F538853633E533F46008E537F4700310
:1002F800853310853337E510F470030203C112000B
:10030800038F11E51070030203AE24F2604B1460F2
:1003180063240260030203BEE5116401700B12003E
:100328000E7BFF7A0779E38065E5116402701D1280
:1003380009ECAF32120ADAAA06A9077BFF7D017F12
:1003480001120A737BFF7A0779EF8063AF321209D3
:10035800BA7BFF7A0779FC80350532120006E53250
:10036800C39F4003E4F532AF321209BA7BFF7A0724
:1003780079FC801AE5327009120006EF14F5328014
:10038800021532AF321209BA7BFF7A0879087D016B
:100398007F02120A73AF32120ADAAA06A9077BFF94
:1003A8007D017F01800D120AB87BFF7A0879137DE1
:1003B800017F02120A737510FF300073C200120029
:1003C80003EF7006F512F5138027120BD5E47BE8CE
:1003D8007A03F9F8120511AB07AA067C007D3C12D6
:1003E80004808F12AE02AF037C007D3C1204808D26
:1003F80013E51275F00A842430F514E51275F00A35
:1004080084E5F02430F51575163AE51375F00A847D
:100418002430F517E51375F00A84E5F02430F51853
:10042800E4F519FB7A0079147D0C7F01120A737FB9
:090438000A7E00120AFB0202CC4C
:10001E004661726577656C6C00536B792043697429
:10002E0079004F6465546F4A6F79000000F23D000D
:10003E0000F3BD0000F514F5B00000F6D00000F797
:10004E00D10000F8B5F91E0000F9DE0000FA8AFAB8
:10005E00D80000FB680000FBE80000FC5AFC8F0093
:10006E0000FCEF0000FD45FD6C0000FDB40000FD3E
:10007E00F40000FE2D000C140411021402190618CF
:10008E000216041904140814040F02110212060CAD
:10009E00020D101404110214021908160419041486
:1000AE000814040D020F0211040F020D020F0800B6
:1000BE000814041102140219061802160419041465
:1000CE000814040F02110212060C020D0800081685
:1000DE000419041908180416021802190816021831
:1000EE0002190216021602140211020D020F080066
:1000FE000814041102140219061802160419041425
:10010E000814040F02110212060C020D080008FF5B
:10011E00000400040004160218021906180219043D
:10012E001D04180C110211021606140216041904ED
:10013E00140C110412061102120419041108000203
:10014E0019021902190218061202120418041808CC
:10015E000004160218021906180219041D04180CC0
:10016E00110211021606140216041904140C0F02C1
:10017E00110212041902180419061B021B021D0299
:10018E00190A190218021602160218041404160C83
:10019E0019021B021D061B021D0420041B0C140257
:1001AE0014021906180219041D041D101602180255
:1001BE00190418041B021B021906140A1E041D043E
:1001CE001D0419041D0C1D042208200420041D0208
:1001DE001B021908000219021B0419021B021B0440
:1001EE0020041D0C1D04220820081D021B021908E4
:1001FE00000219021B0419021B061804160C000437
:10020E00FF000C110411041204140414041204113E
:10021E00040F040D040D040F04110411060F020F38
:10022E000811041104120414041404120411040F0E
:10023E00040D040D040F0411040F060D020D080F1A
:10024E00040F0411040D040F041102120211040D07
:10025E00040F04110411040F040D040F04080811F7
:10026E00041104120414041404120411040F040DD6
:10027E00040D040F0411040F060D020D08FF008378
:0A028E00011E020F001E00270030C1
:030AAB00011D0327
:090AAE00012600042E00000000E6
:100B57005389F0438901758A18758CFCC28DC28C44
:050B6700D2A9D2B92261
:10064500E5296401701BE522452170028013E5222E
:10065500252DF582E521352CF583E493F525F470F8
:1006650003020AB8052DE52D7002052C2522F58219
:10067500E521352CF583E493FD052DE52D70020567
:100685002CAE27E5287802CEC313CE13D8F9FF7C0C
:100695000012046E8E238F24E4F52AF52BAF25FE78
:1006A500EF7005C28CC2A422208C267C00EF252683
:1006B500FFEC3EFEEF25E0FFEE33FE74392FF582A9
:1006C50074003EF583E493FE740193F58A8E8CD213
:0106D5008C98
:0106D6002201
:10098400120B57D3EF9400EE9400400280047E01D2
:100994007FF48E278F28E4F529F521F522F52CF52F
:1009A4002DF525F523F524F52AF52BF531F530F54C
:0609B4002FF52EC2A42263
:1009BA008F1AE51AC3951D5028120AB875F002E578
:1009CA001AA4248CF582E5F03402F583E493FE74CC
:1009DA0001938E21F522E4F52CF52D7529011206D5
:0209EA004522A4
:100AB800C28CC2A4E4F529F521F522F52CF52DF513
:100AC80025F523F524F52AF52BF531F530F52FF525
:020AD8002E22CC
:0C000E00E52964017005C28C75290222EE
:1009EC00E5296402702B752901AF25EF60232526BC
:1009FC00FFE433FEEF25E0FFEE33FE74392FF58272
:100A0C0074003EF583E493FE740193F58A8E8CD2C8
:010A1C008C4D
:010A1D0022B6
:0E0BB300D3EF9400EE940040048E278F28228A
:03000300AF292200
:03000600AF1D2209
:100ADA00EFC3951D501775F002EFA42492F582E535
:100AEA00F03402F583E493FE740193FF22E4FEFFDF
:010AFA0022D9
:090BD500AF31AE30AD2FAC2E2281
:10082100E52964017044E5312401F531E43530F501
:1008310030E4352FF52FE4352EF52E052BE52B7001
:1008410002052AC39524E52A9523401EE522452168
:100851006015E522252DF582E521352CF583E493FC
:0B086100F46004C28CC2A41206452201
:03000B00020901E6
:0B090100C0E0C083C082C0D075D008E9
:10090C00E5296401702AAF25EF60252526FFE43325
:10091C00FEEF25E0FFEE33FE74392FF58274003EB6
:10092C00F583E493FE740193F58A8E8CB2A4800255
:02093C00C2A453
:09093E00D0D0D082D083D0E03289
:100B9300D293D292D291D290D297D296D295D29426
:010BA300222F
:1005A3007FFFC297D296D295D2942093047F018085
:1005B300132092047F02800C2091047F0380052086
:1005C30090027F04D297EFF4600122D297C296D2B1
:1005D30095D2942093047F0580132092047F068094
:1005E3000C2091047F0780052090027F08D296EFAC
:1005F300F4600122D297D296C295D2942093047FBD
:100603000980132092047F0A800C2091047F0B80C1
:10061300052090027F0CD295EFF4600122D297D28D
:1006230096D295C2942093047F0D80132092047F69
:100633000E800C2091047F0F8005209002E4FFD2EE
:010643009422
:010644002293
:060BA400C2A58F80D2A75C
:080BAA007F027EEFDEFEDFFC9E
:010BB2002220
:0A0BC100C2A6120BA4C2A7020BAAE1
:100B1B00CFCDCFCECCCE1204807C007D0A120480C8
:040B2B00ED2430FF86
:0A0B2F00D2A6120BA4C2A7020BAA63
:100B3900AE07EEFB7A0064017004ED148009EB64E2
:0E0B4900024A7009ED243F4480FF120BC122C6
:100B6C007F38120BC17F0C120BC17F06120BC17F99
:040B7C0001020BC1A6
:0A0BCB00AC03120B39AF04020B2F2C
:060A73008B1A8A1B891C8E
:100A7900120B39E4FDAB1AAA1BA91C8D82758300E0
:0C0A8900120441FF6006120B2F0D80E9E3
:010A9500223E
:0A0A1E00EF24FFFDEE34FFFC7F0A19
:080A28008E4F8F508C518D524E
:100A30007F017E00E4FBEBC39552E5516480F874BE
:0E0A40008098500AAC4FAD5012046E0B80E847
:010A4E002285
:040A4F008A428B4309
:100A5300120B39AA44EAFF7E00D394007480948079
:0F0A6300400D120A1EAC42AD43120B1B1A80E667
:010A72002261
:0408B7008B828A8323
:1008BB00120B39C3E58364809480400D7F2B120BA0
:1008CB002F85833E85823F80107F2D120B2FC3E433
:1008DB009582F53FE49583F53EAA3DEAFF7E00D372
:1008EB00940074809480400D120A1EAC3EAD3F12F2
:0508FB000B1B1A80E652
:0109000022D4
:04086C008A478B48E4
:10087000120B39AA49EAD39400748094804037EA75
:1008800024FFFDE434FFFC7F107E00120A28AC47F1
:10089000AD48CFCDCFCECCCE120480EF540FFEC3E7
:1008A000940A74809480EE5004243080022437FF30
:0608B000120B2F1A80BF9D
:0108B600221F
:040947008A4C8B4DFE
:10094B00120B39AA4EEAFF7E00D394007480948078
:10095B004026EF24FFFDEE34FFFC7F02120A28AC89
:10096B004CAD4DCFCDCFCECCCE120480EF54012465
:08097B0030FF120B2F1A80CD92
:010983002251
:1006E300020298E493A3F8E493A34003F68001F293
:1006F30008DFF48029E493A3F85407240CC8C33318
:10070300C4540F4420C8834004F456800146F6DFE6
:10071300E4800B0102040810204080900A96E47ED6
:10072300019360BCA3FF543F30E509541FFEE493DB
:10073300A360010ECF54C025E060A840B8E493A3A2
:10074300FAE493A3F8E493A3C8C582C8CAC583CACD
:10075300F0A3C8C582C8CAC583CADFE9DEE780BE85
:010AB700003E
:10044100BB010CE58229F582E5833AF583E0225070
:1004510006E92582F8E622BBFE06E92582F8E222BA
:0D046100E58229F582E5833AF583E49322D4
:10046E00EF8DF0A4A8F0CF8CF0A428CE8DF0A42EA2
:02047E00FE225C
:10048000BC000BBE0029EF8DF084FFADF022E4CC60
:10049000F875F008EF2FFFEE33FEEC33FCEE9DEC29
:1004A000984005FCEE9DFE0FD5F0E9E4CEFD22ED6F
:1004B000F8F5F0EE8420D21CFEADF075F008EF2FB9
:1004C000FFED33FD4007985006D5F0F222C398FDAA
:0504D0000FD5F0EA2247
:1004D50075F008758200EF2FFFEE33FECD33CDCCDE
:1004E50033CCC58233C5829BED9AEC99E582984061
:1004F5000CF582EE9BFEED9AFDEC99FC0FD5F0D63E
:10050500E4CEFBE4CDFAE4CCF9A88222B800C1B967
:100515000059BA002DEC8BF084CFCECDFCE5F0CBA5
:10052500F97818EF2FFFEE33FEED33FDEC33FCEBDE
:1005350033FB10D703994004EB99FB0FD8E5E4F999
:10054500FA227818EF2FFFEE33FEED33FDEC33FC86
:10055500C933C910D7059BE99A4007EC9BFCE99A7A
:10056500F90FD8E0E4C9FAE4CCFB2275F010EF2FBF
:10057500FFEE33FEED33FDCC33CCC833C810D707BF
:100585009BEC9AE899400AED9BFDEC9AFCE899F8FA
:0E0595000FD5F0DAE4CDFBE4CCFAE4C8F9228D
:00000001FF
