:030000000203F305
:0C03F300787FE4F6D8FD75812502043AFD
:0F062900011D00011FFF011EFF0120FF01210025
:1005EF00E4FDFCC3ED9FEC9E5015E4FBFA0BBB0042
:0F05FF00010AEB64784A70F50DBD00010C80E431
:01060E0022C9
:10066A0053890F438910758DFC758B66C28FD2AB87
:03067A00D28E22FB
:03001B000204C517
:1004C500C0E0C0F0C083C082C0D075D000C000C0FD
:1004D50001C002C003C004C005C006C007758DFC7D
:1004E500758B66120506D007D006D005D004D0035B
:1004F500D002D001D000D0D0D082D083D0F0D0E0CF
:0105050032C3
:10020C007522FF12068F7FF47E011205A012066A7A
:10021C00D2AFAF1D12053C1202BF8F201202BF8F4E
:10022C001FE51FB51E05E4F52180230521C3E5213B
:10023C009403748094804016E4F521851F1EE51EFE
:10024C00F46008E520F47003851E22851E20E5224B
:10025C00F460561200038F23E522604724F2601DE0
:10026C0014602A2402703FE5236401700512000E0D
:10027C008034E5236402702412056E8029051D125A
:10028C000006E51DC39F4003E4F51D800FE51D70BE
:10029C0009120006EF14F51D8002151DAF1D120585
:1002AC003C800312060F7522FF7F0A7E001205EFB9
:0302BC0002022813
:10001E004661726577656C6C00536B792043697429
:10002E0079000000F23D0000F3BD0000F514F5B0BC
:10003E000000F6D00000F7D10000F8B5F91E000060
:10004E00F9DE0000FA8AFAD80000FB680000FBE82F
:10005E000000FC5AFC8F0000FCEF0000FD45FD6C1B
:10006E000000FDB40000FDF40000FE2D140411028A
:10007E0014021906180216041904140814040F02A7
:10008E00110212060C020D101404110214021908AA
:10009E0016041904140814040D020F0211040F02A1
:1000AE000D020F080008140411021402190618029A
:1000BE0016041904140814040F02110212060C027D
:1000CE000D0800081604190419081804160218025F
:1000DE00190816021802190216021602140211024B
:1000EE000D020F080008140411021402190618025A
:1000FE0016041904140814040F02110212060C023D
:10010E000D080008FF00040004000416021802196E
:10011E0006180219041D04180C11021102160614F9
:10012E000216041904140C110412061102120419F9
:10013E0004110800021902190219021806120212FD
:10014E0004180418080004160218021906180219D9
:10015E00041D04180C1102110216061402160419BD
:10016E0004140C0F02110212041902180419061BB2
:10017E00021B021D02190A19021802160216021893
:10018E00041404160C19021B021D061B021D04206A
:10019E00041B0C140214021906180219041D041D66
:1001AE001016021802190418041B021B0219061459
:1001BE000A1E041D041D0419041D0C1D0422082012
:1001CE000420041D021B021908000219021B041947
:1001DE00021B021B0420041D0C1D04220820081DF6
:1001EE00021B021908000219021B0419021B061831
:0E01FE0004160C0004FF007A0113001E0027F7
:0306380001250297
:03063B00011500A6
:10063F00EF1FAC0670011E4C600B007D027CC7DC07
:05064F00FEDDFC80EB64
:010654002283
:100655005389F0438901758A18758CFCC28DC28C4B
:05066500D2A9C2B92278
:10036100E5186401701BE511451070028013E51159
:10037100251CF582E510351BF583E493F514F47023
:100381000302060F051CE51C7002051B2511F582F1
:10039100E510351BF583E493FD051CE51C70020592
:1003A1001BAE16E5177802CEC313CE13D8F9FF7C26
:1003B1000012067D8E128F13E4F519F51AAF14FEA3
:1003C100EF7005C28CC2A522208C267C00EF25157A
:1003D100FFEC3EFEEF25E0FFEE33FE74302FF58299
:1003E10074003EF583E493FE740193F58A8E8CD2FA
:0103F1008C7F
:0103F20022E8
:1005A000120655D3EF9400EE9400400280047E01C1
:1005B0007FF48E168F17E4F518F510F511F51BF57D
:0E05C0001CF514F512F513F519F51AC2A52253
:10053C008F24E524C39525502812060F75F002E58B
:10054C0024A42404F582E5F03402F583E493FE74CC
:10055C0001938E10F511E4F51BF51C7518011203AF
:02056C0061220A
:10060F00C28CC2A5E4F518F510F511F51BF51CF514
:0A061F0014F512F513F519F51A226F
:0C000E00E51864017005C28C7518022210
:10056E00E5186402702B751801AF14EF6023251582
:10057E00FFE433FEEF25E0FFEE33FE74302FF582FD
:10058E0074003EF583E493FE740193F58A8E8CD24B
:01059E008CD0
:01059F002239
:0E06A000D3EF9400EE940040048E168F1722C4
:03000300AF182211
:03000600AF252201
:1005CE00EFC39525501775F002EFA42408F582E5C8
:1005DE00F03402F583E493FE740193FF22E4FEFFF0
:0105EE0022EA
:10050600E5186401702F051AE51A70020519C395DE
:1005160013E5199512401EE51145106015E51125E4
:100526001CF582E510351BF583E493F46004C28C58
:06053600C2A512036122C0
:03000B0002047F6D
:0B047F00C0E0C083C082C0D075D00870
:10048A00E5186401702AAF14EF60252515FFE433DF
:10049A00FEEF25E0FFEE33FE74302FF58274003E46
:1004AA00F583E493FE740193F58A8E8CB2A58002DB
:0204BA00C2A5D9
:0904BC00D0D0D082D083D0E03210
:10068F00D293D292D291D290D294D295D296D2972F
:01069F002238
:1002BF007FFFC294D295D296D2972093047F01806C
:1002CF00132092047F02800C2091047F038005206D
:1002DF0090027F04D294EFF4600122D294C295D29F
:1002EF0096D2972093047F0580132092047F068077
:1002FF000C2091047F0780052090027F08D295EF94
:10030F00F4600122D294D295C296D2972093047FA3
:10031F000980132092047F0A800C2091047F0B80A8
:10032F00052090027F0CD296EFF4600122D294D276
:10033F0095D296C2972093047F0D80132092047F4D
:10034F000E800C2091047F0F8005209002E4FFD2D5
:01035F009706
:01036000227A
:1003FF0002020CE493A3F8E493A34003F68001F206
:10040F0008DFF48029E493A3F85407240CC8C333FE
:10041F00C4540F4420C8834004F456800146F6DFCD
:10042F00E4800B0102040810204080900629E47E2E
:10043F00019360BCA3FF543F30E509541FFEE493C2
:10044F00A360010ECF54C025E060A840B8E493A389
:10045F00FAE493A3F8E493A3C8C582C8CAC583CAB4
:10046F00F0A3C8C582C8CAC583CADFE9DEE780BE6C
:01063E0000BB
:10067D00EF8DF0A4A8F0CF8CF0A428CE8DF0A42E91
:02068D00FE224B
:00000001FF
